:020000040800F2
:10000000080700204D020008CB1300086D110008FE
:10001000C9130008430400089115000800000000FF
:10002000000000000000000000000000CF130008E6
:100030004504000800000000CD130008D11300089B
:1000400067020008670200086702000867020008EC
:1000500067020008670200086702000867020008DC
:1000600067020008670200086702000867020008CC
:1000700067020008670200086702000867020008BC
:1000800067020008670200086702000867020008AC
:100090006702000867020008670200087D04000884
:1000A000670200086702000867020008670200088C
:1000B000670200086702000867020008670200087C
:1000C000670200086702000867020008670200086C
:1000D000670200086702000867020008670200085C
:1000E000470400086702000867020008670200086A
:1000F000670200086702000867020008670200083C
:10010000670200086702000867020008670200082B
:10011000670200086702000867020008670200081B
:10012000670200086702000867020008670200080B
:1001300067020008670200086702000867020008FB
:1001400067020008670200086702000867020008EB
:1001500067020008670200086702000867020008DB
:1001600067020008670200086702000867020008CB
:10017000670200086702000867020008000000002C
:1001800067020008670200086702000867020008AB
:10019000670200086702000867020008670200089B
:1001A00067020008670200086702000800F002F812
:1001B00000F03CF80AA090E8000C82448344AAF1C5
:1001C0000107DA4501D100F031F8AFF2090EBAE8C3
:1001D0000F0013F0010F18BFFB1A43F0010318477B
:1001E0008C140000AC140000103A24BF78C878C109
:1001F000FAD8520724BF30C830C144BF04680C602D
:10020000704700000023002400250026103A28BF74
:1002100078C1FBD8520728BF30C148BF0B60704778
:100220001FB501F011FA1FBD10B510BD00F0CFF8D9
:100230001146FFF7F5FF01F0BDF900F0EDF803B44A
:10024000FFF7F2FF03BC00F0F5F800000948804713
:1002500009480047FEE7FEE7FEE7FEE7FEE7FEE7A8
:10026000FEE7FEE7FEE7FEE704480549054A064BC0
:100270007047000075140008AD0100080801002057
:1002800008070020080300200803002053EA020C9E
:1002900000F069802DE9F04B4FF00006002B1FBFE6
:1002A000B3FA83F503FA05F424FA05F65E4012BFAB
:1002B0001643B2FA82F502FA05F4C5F120051EBF15
:1002C00022FA05FC44EA0C04203556EA044C4FEAB5
:1002D000144418BF641C4FF000084FF0000990420E
:1002E00071EB030C39D3002919BFB1FA81F701FA78
:1002F00007F6B0FA80F700FA07F6C7F120071EBF2D
:1003000020FA07FC46EA0C062037B6FBF4FCA7EB04
:100310000507103F07F01F0BCBF120060CFA0BFB73
:100320002CFA06F644BFB3460026202FA4BF5E4633
:100330004FF0000B5BEA060C08BF4FF0010B19EB06
:100340000B09ABFB027C48EB0608C01B06FB02CC8A
:100350000BFB03CC71EB0C01C1E70B460246414697
:100360004846BDE8F08B13B54FF000004FF0000198
:10037000AFF30080BDE81C4070474FF0000200B5AD
:10038000134694469646203922BFA0E80C50A0E8B8
:100390000C50B1F12001BFF4F7AF090728BFA0E866
:1003A0000C5048BF0CC05DF804EB890028BF40F832
:1003B000042B08BF704748BF20F8022B11F0804F74
:1003C00018BF00F8012B704770477047704775469B
:1003D00000F02CF8AE4605006946534620F00700B1
:1003E000854618B020B5FFF73FFFBDE820404FF02D
:1003F00000064FF000074FF000084FF0000B21F00F
:100400000701AC46ACE8C009ACE8C009ACE8C009DB
:10041000ACE8C0098D46704710B50446AFF30080C4
:100420002046BDE81040FFF70ABF000000487047B3
:10043000A800002001491820ABBEFEE726000200FC
:100440007047FEE7704710B54FF4806000F036F853
:100450004FF4006000F032F84FF4805000F02EF8B6
:100460004FF4005000F02AF84FF4804000F026F8D6
:10047000BDE810404FF4004000F020B810B54FF434
:10048000807000F01BF8BDE810404FF4007000F0E1
:1004900015B8000070B5044600F03CF90546601C34
:1004A00002D004480078044400F034F9401BA04214
:1004B000FAD370BD0000002070470000044910B559
:1004C0000A68024202D00860FFF7F6FF10BD000084
:1004D000143C01402DE9F84FDFF8F8A10022012477
:1004E0000AF1040B03254FF00F090BF1040E00BFB6
:1004F0000B6804FA02F63340B34270D10F7907F06B
:100500000307012F01D0022F16D187684FEA420856
:1005100005FA08FC27EA0C07D1F80CC00CFA08FC15
:100520004CEA070CC0F808C04768B7430E79C6F319
:10053000001696403E4346600E79F643B6070AD051
:10054000C7684FEA420C05FA0CF6B7438E6806FA04
:100550000CF63E43C6600E7906F00306022E10D15B
:10056000D60800EB8608D8F8206057074FEAD76C0A
:1005700009FA0CF7BE430F6907FA0CF73743C8F8BE
:10058000207006684FEA420C05FA0CF7BE430F795B
:1005900007F0030707FA0CF7374307604E6816F4B5
:1005A000403F1CD04C4E376847F480473760366870
:1005B00022F0030706F480460096484E07EB060C2F
:1005C000DCF8086897073F0F09FA07F826EA0806DB
:1005D000DFF80C81404503D14FF0000841E072E0A4
:1005E000DFF80081404502D14FF0010839E0DFF823
:1005F000F880404502D14FF0020832E0DFF8EC808D
:10060000404502D14FF003082BE0DFF8E48040457D
:1006100002D14FF0040824E0DFF8D880404502D131
:100620004FF005081DE0DFF8D080404502D14FF0C3
:10063000060816E0DFF8C480404502D14FF00708F5
:100640000FE0DFF8BC80404502D14FF0080808E019
:10065000DFF8B080404502D14FF0090801E04FF0CB
:100660000A0808FA07F848EA0608CCF80888DAF811
:1006700000605746D1F804C09E435FEACC3C00D5E9
:100680001E433E60DBF800605F46D1F804C09E4325
:100690005FEA8C3C00D51E433E60DEF80060774682
:1006A000D1F804C09E435FEACC2C00D51E433E60C7
:1006B000084F0C373E68D1F804C09E435FEA8C2C8B
:1006C00000D51E433E60521C102AFFF411AFBDE856
:1006D000F88F0000003C01404438024000300140E7
:1006E000000002400004024000080240000C0240EA
:1006F000001002400014024000180240001C02409A
:1007000000200240002402400AB1816170470904C0
:10071000FBE70000014880687047000000000020EF
:1007200090F83D20202A01D002207047242280F832
:100730003D200268136823F0010313600268536AC6
:1007400023F0100353620268536A0B43536201683B
:100750000A6842F001020A60202180F83D10002062
:10076000704790F83D20202A01D0022070472422B3
:1007700080F83D200268136823F0010313600368CA
:100780005A6A22F00F020A4391B2596201680A685C
:1007900042F001020A60202180F83D1000207047DD
:1007A00070B5040025D094F83D00002520B984F8E8
:1007B0003C50204600F0B8F8242084F83D00206822
:1007C000016821F0010101602068016841F40041E5
:1007D00001602068016821F40041016000F044FAE2
:1007E0004D4A6168914201D84C4900E04C49884229
:1007F00001D2012070BD4B492368B0FBF1F15E6866
:1008000026F03F060E435E606368934206D94FF4BC
:10081000967359434FF47A73B1FBF3F12368491C83
:100820001E6A26F03F06314319626168914210D872
:100830004900401EB0FBF1F2521CC2F30B02042A25
:1008400001D2042022E0B0FBF1F0401CC0F30B0009
:100850001CE0A268F2B301EBC10303EB0116431ED7
:10086000B3FBF6F35B1C43F480431B0549D092B302
:1008700001EBC10202EB0111401EB0FBF1F0401C84
:10088000C0F30B0040F4804040F400402168CA6986
:100890004CF6FF739A431043C861D4E90710014333
:1008A0002068026822F0C00211430160D4E903010C
:1008B00001432068826848F2FF339A431143816004
:1008C000D4E9050108432168CA6822F0FF021043F9
:1008D000C86001E00EE016E02068016841F0010107
:1008E00001602564202084F83D00256384F83E5093
:1008F000002070BD01EB4106431EB3FBF6F35B1C09
:10090000B3E70120C2E701EB4101401EB0FBF1F06B
:10091000401CC0F30B00B7E7A086010080841E00D6
:1009200000093D0040420F0010B586B00446142176
:100930006846FFF722FD13492068884220D11248FB
:100940000021026842F002020260006800F002002A
:100950000590C02000901220CDE9010103200390F2
:100960000420049069460948FFF7B4FD064810309A
:10097000016841F400110160006800F40010059066
:1009800006B010BD00540040303802400004024060
:10099000024881680278114481607047000000209D
:1009A0000B4810B5016841F400710160016841F421
:1009B00080610160016841F480710160032000F0F2
:1009C0006FF8002000F006F800F024F8002010BDB9
:1009D000003C024070B50D4D04464FF47A71287802
:1009E000B1FBF0F00A490968B1FBF0F000F042FBFE
:1009F00048B9102C07D200222146501E00F030F8D2
:100A000000206C6070BD012070BD0000000000205F
:100A10000C0000200A4808B5016841F480410160DB
:100A2000006800F4804000900548001F016841F014
:100A300080510160006800F08050009008BD000007
:100A400044380240002809DB00F01F0201219140D8
:100A50004009800000F1E020C0F80011704700005C
:100A6000F0B40E4B1B680C46C3F30223C3F1070519
:100A7000042D00D90425191D072901D2002300E007
:100A8000DB1E012606FA05F1491E214099409E40D1
:100A9000761E16403143F0BC00F07BBD0CED00E04B
:100AA000064900F0070208684FF6FF03184040EAC5
:100AB0000220034A10430860704700000CED00E07C
:100AC0000000FA052DE9F8431748016841F080510C
:100AD00001600068154F00F08050012600903E64D0
:100AE000FFF718FE05464FF47A78114C05E000BF79
:100AF000FFF710FE401B40450DD86068C003F7D5D6
:100B00007E64FFF707FE0546464607E0FFF702FE54
:100B1000401BB04202D90320BDE8F883606880031F
:100B2000F4D50020F8E700004038024000000E42F3
:100B3000007000402DE9F0470E46050065D0DFF853
:100B40001481D8F80000F7B200F00F00B04207D2CD
:100B500088F80070D8F8000000F00F00B04254D1BF
:100B600028683D4C810712D5400703D5206840F422
:100B7000E05020602878000703D5206840F46040EA
:100B800020602068A96820F0F000084320602878E1
:100B9000C0072DD0304968680839012812D00228D2
:100BA00013D0032811D00968890700292DDA21689C
:100BB00021F0030101432160FFF7ACFD814641F2C2
:100BC000883A0EE009688903EFE709688901ECE7D4
:100BD000FFF7A0FDA0EB0901514502D90320BDE8B4
:100BE000F0872068696800F00C00B0EB810FEFD14E
:100BF000D8F80010404601F00F01B14207D9077044
:100C0000006800F00F00B04201D00120E7E728782B
:100C1000400705D52068E96820F4E05008432060CB
:100C20002878000706D52068296920F4604040EA4A
:100C3000C100206000F038F82168084AC1F30311B0
:100C4000515CC8400649086006480068FFF7C2FECC
:100C50000020C4E7003C0240083802405216000859
:100C60000C000020040000200448054900680968C1
:100C7000044AC1F38221515CC84070470C00002037
:100C800008380240621600080448054900680968EF
:100C9000044AC1F34231515CC84070470C00002047
:100CA0000838024062160008154810B5006810F0B8
:100CB0000C02144813D04110042A0FD0082A0ED178
:100CC0000F4C241F2268236802F03F025B0207D505
:100CD0002068C0F38810A0FB010106E0084610BDA3
:100CE0002168C1F38811A1FB00010023FFF7CEFAB0
:100CF0002168C1F30141491C4900B0FBF1F010BD6E
:100D0000083802400024F4002DE9F84F04006ED0AA
:100D10002078DFF84C93C007A9F104054AD009F107
:100D200004000168C1F38101012908D00068C0F303
:100D3000810002280AD1D9F80000400206D52868AF
:100D4000800337D560680028E1D033E06068B0F5F3
:100D5000803F10D0B0F5A02F286810D020F480304C
:100D60002860286820F4802028606068A8B1FFF718
:100D7000D1FC06460DE0286840F48030F4E740F4EA
:100D800080202860F7E700BFFFF7C4FC801B6428C1
:100D900073D828688003F7D50CE0FFF7BBFC064644
:100DA00005E000BFFFF7B6FC801B6428F0D8286878
:100DB0008003F7D42078DFF8AC8280074FF0000A78
:100DC0003ED5A748001D016811F00C0F08D000683F
:100DD000C0F3810002280BD1D9F80000400207D4EB
:100DE0002868800716D5E068012800D112E033E1B9
:100DF000E068B8B10120C8F80000FFF78BFC064698
:100E000005E000BFFFF786FC801B0228C0D82868D9
:100E10008007F7D52868216920F0F80040EAC10072
:100E200028600DE0C8F800A0FFF774FC064604E057
:100E3000FFF770FC801B02281FD828688007F7D4B2
:100E40002078000722D5864F87486169703771B1D5
:100E500001210160FFF75EFC064604E0FFF75AFC43
:100E6000801B022809D838688007F7D50EE0C0F843
:100E700000A0FFF74FFC064605E082E0FFF74AFCC2
:100E8000801B02287DD838688007F7D42078400777
:100E900068D5DFF8CCB100270BF13C0BDBF8000084
:100EA000C0000BD4DBF8001041F08051CBF80010EB
:100EB000DBF80000012700F0805000906B4E306896
:100EC000C00510D4306840F480703060FFF722FC19
:100ED000009005E0FFF71EFC0099401A022850D848
:100EE0003068C005F6D55E4EA0686C3601280FD07C
:100EF0000528306810D020F001003060306820F004
:100F000004003060A068B8B1FFF704FC00900FE067
:100F1000306840F00100F4E740F004003060F7E78B
:100F2000FFF7F8FB0099411A41F28830814266D8F8
:100F300030688007F4D50EE0FFF7ECFB009007E087
:100F4000FFF7E8FB0099411A41F28830814256D8F8
:100F500030688007F4D42FB1DBF8001021F0805105
:100F6000CBF80010A069C8B33D49091D0968C1F359
:100F7000810102294AD00228504607D0C8F86000F3
:100F800000E03CE0FFF7C6FB04463BE04746C8F8FC
:100F90006000FFF7BFFB064605E000BFFFF7BAFBA6
:100FA000801B02282BD828688001F7D4D4E90701D8
:100FB0000843A16A2E4A490802EB0141626A41EAEC
:100FC0008211084394F82C1040EA0161C9F800101E
:100FD00001203866FFF79EFB044606E03EE000BFB6
:100FE000FFF798FB001B022809D828688001F7D575
:100FF00034E000BFFFF78EFB001B022802D903205C
:10100000BDE8F88F28688001F4D427E00128F7D0E4
:10101000D9F80000E26900F4800191421CD1226AF3
:1010200000F03F01914217D147F6C071626A01405A
:10103000B1EB821F10D1A26A4FF0FF3300F44031B0
:1010400003EB5202B1EB024F06D194F82C1000F0E2
:101050007060B0EB016F01D00120D1E70020CFE735
:101060000438024000004742800E474200700040B2
:101070000000FFFF10B5401EB0F1807F01D30120BA
:1010800010BD4FF0E02460610F21601700F081FA7D
:101090000020A06107202061002010BD70B5040071
:1010A00004D094F83D00002510B106E0012070BD89
:1010B00084F83C50204600F023F8242084F83D00BA
:1010C0002068C16821F40051C160204600F0DAF9BF
:1010D0002068016921F4904101612068416921F093
:1010E0002A0141612068C16841F40051C160256452
:1010F000202084F83D0084F83E00002070BD0000F0
:1011000010B586B0044614216846FFF736F9144935
:101110002068884221D113480021026842F48022CD
:101120000260006800F4802005900E4810380268C4
:1011300042F008020260006800F0080005904FF4D9
:10114000407000900220CDE90101032003900720A8
:10115000049069460448FFF7BDF906B010BD0000D1
:101160000048004040380240000C0240FEE700000A
:101170002DE9F04F87B014216846FFF7FEF8754857
:101180000024016841F010010160016801F01001C4
:101190000591016841F004010160016801F004015A
:1011A0000591016841F020010160016801F0200112
:1011B0000591016841F080010160016801F0800142
:1011C0000591016841F001010160016801F0010130
:1011D0000591016841F002010160016801F002011E
:1011E0000591016841F008010160016801F0080102
:1011F0000591016841F0400101600068564E00F021
:1012000040004FF6FF750590002229463046FFF753
:101210007BFA524F0022FF213846FFF775FADFF8BC
:1012200040B144F20109002249465846FFF76CFAE2
:10123000002240214B48FFF767FA4FF00108009564
:10124000CDE90184694630460394FFF743F9FF2056
:101250000090CDE90184694638460394FFF73AF9D6
:101260004FF47F4000904FF48810CDE901046946A7
:101270003846FFF72FF932200225CDE9000502AAF2
:1012800003260B2782E8D00069463748FFF722F98A
:101290008620CDE9000502AADFF8D0A082E8D000C0
:1012A00069465046FFF716F9CDF80090CDE9018464
:1012B000694658460394FFF70DF92803CDE9000568
:1012C00002AA694682E8D0005846FFF703F9402099
:1012D0000090CDE90184694622480394FFF7FAF8AB
:1012E0008020CDE9000469461E480294FFF7F2F819
:1012F0004FF4E850CDE9000502940A20CDE90360DF
:1013000069465046FFF7E6F82802CDE90004694631
:1013100050460294FFF7DEF84FF42050CDE9000567
:1013200002AA694682E8D0000E48FFF7D3F80022EF
:1013300011461720FFF794FB1720FFF783FB0022CD
:1013400011462820FFF78CFB2820FFF77BFB07B016
:10135000BDE8F08F30380240001002400014024017
:101360000004024000180240000802400000024051
:10137000134810B5114901601249416000214FF432
:1013800080428160C0E9031241618161C1610162F3
:10139000FFF706FA08B172B6FEE700210848FFF72A
:1013A000BFF908B172B6FEE700210548FFF7D9F989
:1013B000002801D072B6FEE710BD000000540040C6
:1013C00010000020A0860100FEE7FEE7704770478E
:1013D000FFF7DEBA30B593B030216846FEF7CDFF97
:1013E00014210CA8FEF7C9FF20480025016841F030
:1013F00080510160006800F0805011901C48016825
:1014000041F4404101600068022400F44040119022
:10141000012000904FF4A02001906005CDE9064026
:1014200008AA0420B42182E813000B906846FFF755
:101430006BFC08B172B6FEE7FFF744FB08B172B669
:10144000FEE70CA90F2081E831004FF4A0500F9067
:101450004FF48050109005210CA8FFF76BFB00287B
:1014600001D072B6FEE713B030BD00004038024034
:10147000007000400248016841F47001016070474B
:1014800088ED00E070B5044600680169E26821F467
:101490004051114301612169A068E2690843616913
:1014A000114308432168CA6849F20C639A43024316
:1014B000CA6020684169A26921F440711143416109
:1014C00031492068884202D03049884202D1FFF772
:1014D000DBFB01E0FFF7C8FBE2690023192164256B
:1014E0003226B2F5004F626828D0A0FB0101930FAD
:1014F0009200FEF7CBFE0146B0FBF5F06FF018024C
:10150000504301EB800006EB0010B0FBF5F000F05B
:10151000F002B1FBF5F002EB0012B1FBF5F06FF059
:101520001803584301EB800006EB0010B0FBF5F008
:1015300000F00F0021681044886070BDA0FB01011D
:1015400092185B41FEF7A2FE0146B0FBF5F00201E6
:10155000B1FBF5F06FF01803584301EB800006EB88
:10156000C000B0FBF5F000F0F80002EB4002B1FB68
:10157000F5F0584301EB800006EBC000B0FBF5F03E
:1015800000F00700D6E70000001001400014014001
:10159000FEE70907090E002804DB00F1E02080F8CF
:1015A0000014704700F00F0000F1E02080F8141DD7
:1015B00070470000FFF7F4F91F48016821F011019E
:1015C0000160016841F00101016000254561FFF7FC
:1015D00001FFFFF7CDFDFFF7CBFE1948174901606A
:1015E0004FF4E131C0E901150C21C560C0E9045197
:1015F0008561C561FFF752FD08B172B6FEE7114C77
:1016000025604FF4AF752846FEF744FF2846FEF7E5
:1016100041FF206840F0330020602846FEF73AFF83
:10162000206880F0FF0020602846FEF733FF206826
:1016300080F0FF002060E6E7000002400048004024
:1016400064000020141402404FF04070E1EE100AD4
:1016500070470000000000000000010203040607BC
:101660000809000000000102030400008C160008B5
:101670000000002010000000E80100089C1600088F
:1016800010000020F806000004020008010000001D
:0C16900010000000000000000024F40026
:04000005080001AD41
:00000001FF
